{
  "contractName": "MicroPaySystem",
  "abi": [
    {
      "constant": true,
      "inputs": [],
      "name": "TokenDecimals",
      "outputs": [
        {
          "name": "",
          "type": "uint256"
        }
      ],
      "payable": false,
      "stateMutability": "view",
      "type": "function"
    },
    {
      "constant": true,
      "inputs": [],
      "name": "PacketPrice",
      "outputs": [
        {
          "name": "",
          "type": "uint256"
        }
      ],
      "payable": false,
      "stateMutability": "view",
      "type": "function"
    },
    {
      "constant": true,
      "inputs": [
        {
          "name": "",
          "type": "address"
        }
      ],
      "name": "MinerPools",
      "outputs": [
        {
          "name": "ID",
          "type": "uint32"
        },
        {
          "name": "poolType",
          "type": "uint8"
        },
        {
          "name": "mainAddr",
          "type": "address"
        },
        {
          "name": "payer",
          "type": "address"
        },
        {
          "name": "subAddr",
          "type": "bytes32"
        },
        {
          "name": "guaranteedNo",
          "type": "uint256"
        },
        {
          "name": "shortName",
          "type": "string"
        },
        {
          "name": "detailInfos",
          "type": "string"
        }
      ],
      "payable": false,
      "stateMutability": "view",
      "type": "function"
    },
    {
      "constant": true,
      "inputs": [],
      "name": "MinMinerCostInToken",
      "outputs": [
        {
          "name": "",
          "type": "uint256"
        }
      ],
      "payable": false,
      "stateMutability": "view",
      "type": "function"
    },
    {
      "constant": true,
      "inputs": [
        {
          "name": "",
          "type": "address"
        },
        {
          "name": "",
          "type": "address"
        }
      ],
      "name": "MicroPaymentChannels",
      "outputs": [
        {
          "name": "mainAddr",
          "type": "address"
        },
        {
          "name": "payerAddr",
          "type": "address"
        },
        {
          "name": "remindTokens",
          "type": "uint256"
        },
        {
          "name": "remindPackets",
          "type": "uint256"
        },
        {
          "name": "expiration",
          "type": "uint256"
        }
      ],
      "payable": false,
      "stateMutability": "view",
      "type": "function"
    },
    {
      "constant": true,
      "inputs": [
        {
          "name": "",
          "type": "address"
        },
        {
          "name": "",
          "type": "uint256"
        }
      ],
      "name": "allSubPools",
      "outputs": [
        {
          "name": "",
          "type": "address"
        }
      ],
      "payable": false,
      "stateMutability": "view",
      "type": "function"
    },
    {
      "constant": true,
      "inputs": [],
      "name": "owner",
      "outputs": [
        {
          "name": "",
          "type": "address"
        }
      ],
      "payable": false,
      "stateMutability": "view",
      "type": "function"
    },
    {
      "constant": true,
      "inputs": [
        {
          "name": "",
          "type": "uint256"
        }
      ],
      "name": "MinerPoolsAddresses",
      "outputs": [
        {
          "name": "",
          "type": "address"
        }
      ],
      "payable": false,
      "stateMutability": "view",
      "type": "function"
    },
    {
      "constant": true,
      "inputs": [],
      "name": "Duration",
      "outputs": [
        {
          "name": "",
          "type": "uint256"
        }
      ],
      "payable": false,
      "stateMutability": "view",
      "type": "function"
    },
    {
      "constant": false,
      "inputs": [
        {
          "name": "newOwner",
          "type": "address"
        }
      ],
      "name": "transferOwnership",
      "outputs": [],
      "payable": false,
      "stateMutability": "nonpayable",
      "type": "function"
    },
    {
      "constant": true,
      "inputs": [],
      "name": "MinPoolCostInToken",
      "outputs": [
        {
          "name": "",
          "type": "uint256"
        }
      ],
      "payable": false,
      "stateMutability": "view",
      "type": "function"
    },
    {
      "constant": true,
      "inputs": [],
      "name": "token",
      "outputs": [
        {
          "name": "",
          "type": "address"
        }
      ],
      "payable": false,
      "stateMutability": "view",
      "type": "function"
    },
    {
      "inputs": [
        {
          "name": "ta",
          "type": "address"
        }
      ],
      "payable": false,
      "stateMutability": "nonpayable",
      "type": "constructor"
    },
    {
      "constant": false,
      "inputs": [
        {
          "name": "newPrice",
          "type": "uint256"
        }
      ],
      "name": "ChangeBandWidthPrice",
      "outputs": [],
      "payable": false,
      "stateMutability": "nonpayable",
      "type": "function"
    },
    {
      "constant": false,
      "inputs": [
        {
          "name": "newCost",
          "type": "uint256"
        }
      ],
      "name": "ChangeMinPoolCost",
      "outputs": [],
      "payable": false,
      "stateMutability": "nonpayable",
      "type": "function"
    },
    {
      "constant": false,
      "inputs": [
        {
          "name": "newCost",
          "type": "uint256"
        }
      ],
      "name": "ChangeMinMinerCost",
      "outputs": [],
      "payable": false,
      "stateMutability": "nonpayable",
      "type": "function"
    },
    {
      "constant": false,
      "inputs": [
        {
          "name": "daysAfter",
          "type": "uint256"
        }
      ],
      "name": "ChangeDuration",
      "outputs": [],
      "payable": false,
      "stateMutability": "nonpayable",
      "type": "function"
    },
    {
      "constant": false,
      "inputs": [
        {
          "name": "user",
          "type": "address"
        },
        {
          "name": "tokenNo",
          "type": "uint256"
        },
        {
          "name": "poolAddr",
          "type": "address"
        }
      ],
      "name": "BuyPacket",
      "outputs": [],
      "payable": false,
      "stateMutability": "nonpayable",
      "type": "function"
    },
    {
      "constant": true,
      "inputs": [
        {
          "name": "userAddress",
          "type": "address"
        }
      ],
      "name": "TokenBalance",
      "outputs": [
        {
          "name": "",
          "type": "uint256"
        },
        {
          "name": "",
          "type": "uint256"
        }
      ],
      "payable": false,
      "stateMutability": "view",
      "type": "function"
    },
    {
      "constant": true,
      "inputs": [
        {
          "name": "userAddress",
          "type": "address"
        }
      ],
      "name": "AllMySubPools",
      "outputs": [
        {
          "name": "",
          "type": "address[]"
        }
      ],
      "payable": false,
      "stateMutability": "view",
      "type": "function"
    },
    {
      "constant": false,
      "inputs": [
        {
          "name": "gno",
          "type": "uint256"
        },
        {
          "name": "mainAddr",
          "type": "address"
        },
        {
          "name": "subAddr",
          "type": "bytes32"
        },
        {
          "name": "name",
          "type": "string"
        },
        {
          "name": "desc",
          "type": "string"
        }
      ],
      "name": "RegAsMinerPool",
      "outputs": [],
      "payable": false,
      "stateMutability": "nonpayable",
      "type": "function"
    },
    {
      "constant": false,
      "inputs": [
        {
          "name": "mainAddr",
          "type": "address"
        },
        {
          "name": "typ",
          "type": "uint8"
        }
      ],
      "name": "SetPoolType",
      "outputs": [],
      "payable": false,
      "stateMutability": "nonpayable",
      "type": "function"
    },
    {
      "constant": true,
      "inputs": [],
      "name": "GetPoolSize",
      "outputs": [
        {
          "name": "",
          "type": "uint256"
        }
      ],
      "payable": false,
      "stateMutability": "view",
      "type": "function"
    },
    {
      "constant": true,
      "inputs": [],
      "name": "GetPoolAddress",
      "outputs": [
        {
          "name": "",
          "type": "address[]"
        }
      ],
      "payable": false,
      "stateMutability": "view",
      "type": "function"
    },
    {
      "constant": false,
      "inputs": [
        {
          "name": "mainAddr",
          "type": "address"
        },
        {
          "name": "name",
          "type": "string"
        },
        {
          "name": "desc",
          "type": "string"
        }
      ],
      "name": "ChangePoolSettings",
      "outputs": [],
      "payable": false,
      "stateMutability": "nonpayable",
      "type": "function"
    }
  ],
  "bytecode": "0x608060405262f4240060015562278d0060055534801561001e57600080fd5b506040516020806124fa8339810180604052602081101561003e57600080fd5b8101908080519060200190929190505050336000806101000a81548173ffffffffffffffffffffffffffffffffffffffff021916908373ffffffffffffffffffffffffffffffffffffffff16021790555080600660006101000a81548173ffffffffffffffffffffffffffffffffffffffff021916908373ffffffffffffffffffffffffffffffffffffffff160217905550600660009054906101000a900473ffffffffffffffffffffffffffffffffffffffff1673ffffffffffffffffffffffffffffffffffffffff1663b9a215896040518163ffffffff1660e01b815260040160206040518083038186803b15801561013857600080fd5b505afa15801561014c573d6000803e3d6000fd5b505050506040513d602081101561016257600080fd5b810190808051906020019092919050505060048190555060045461c800026002819055506004546102000260038190555050612357806101a36000396000f3fe608060405234801561001057600080fd5b50600436106101585760003560e01c80635bbddc0a116100c3578063b8d8f9ef1161007c578063b8d8f9ef146109d6578063ccb3094114610b5c578063f2fde38b14610b7a578063f6cb3dfc14610bbe578063fc0c546a14610bdc578063ff13c10314610c2657610158565b80635bbddc0a146106915780638da5cb5b1461071f578063a61bd1ed14610769578063b1d9c348146108db578063b583e62314610949578063b6e2b3951461097757610158565b806338339ea11161011557806338339ea11461046e5780633e6cc5b21461048c5780634c557911146104eb5780634f5fa00b1461051957806351f922ac1461053757806353488ab7146105a557610158565b80630910d1b01461015d5780630ff45f381461017b57806319f2170f146101cc5780631deacdd1146101ea578063291c3a5c146102185780632aec99fd146103d5575b600080fd5b610165610c54565b6040518082815260200191505060405180910390f35b6101ca6004803603604081101561019157600080fd5b81019080803573ffffffffffffffffffffffffffffffffffffffff169060200190929190803560ff169060200190929190505050610c5a565b005b6101d4610d76565b6040518082815260200191505060405180910390f35b6102166004803603602081101561020057600080fd5b8101908080359060200190929190505050610d7c565b005b61025a6004803603602081101561022e57600080fd5b81019080803573ffffffffffffffffffffffffffffffffffffffff169060200190929190505050610de4565b604051808963ffffffff1663ffffffff1681526020018860ff1660ff1681526020018773ffffffffffffffffffffffffffffffffffffffff1673ffffffffffffffffffffffffffffffffffffffff1681526020018673ffffffffffffffffffffffffffffffffffffffff1673ffffffffffffffffffffffffffffffffffffffff1681526020018581526020018481526020018060200180602001838103835285818151815260200191508051906020019080838360005b8381101561032c578082015181840152602081019050610311565b50505050905090810190601f1680156103595780820380516001836020036101000a031916815260200191505b50838103825284818151815260200191508051906020019080838360005b83811015610392578082015181840152602081019050610377565b50505050905090810190601f1680156103bf5780820380516001836020036101000a031916815260200191505b509a505050505050505050505060405180910390f35b610417600480360360208110156103eb57600080fd5b81019080803573ffffffffffffffffffffffffffffffffffffffff169060200190929190505050610fb9565b6040518080602001828103825283818151815260200191508051906020019060200280838360005b8381101561045a57808201518184015260208101905061043f565b505050509050019250505060405180910390f35b610476611086565b6040518082815260200191505060405180910390f35b610494611093565b6040518080602001828103825283818151815260200191508051906020019060200280838360005b838110156104d75780820151818401526020810190506104bc565b505050509050019250505060405180910390f35b6105176004803603602081101561050157600080fd5b8101908080359060200190929190505050611121565b005b610521611184565b6040518082815260200191505060405180910390f35b6105a36004803603606081101561054d57600080fd5b81019080803573ffffffffffffffffffffffffffffffffffffffff16906020019092919080359060200190929190803573ffffffffffffffffffffffffffffffffffffffff16906020019092919050505061118a565b005b610607600480360360408110156105bb57600080fd5b81019080803573ffffffffffffffffffffffffffffffffffffffff169060200190929190803573ffffffffffffffffffffffffffffffffffffffff169060200190929190505050611879565b604051808673ffffffffffffffffffffffffffffffffffffffff1673ffffffffffffffffffffffffffffffffffffffff1681526020018573ffffffffffffffffffffffffffffffffffffffff1673ffffffffffffffffffffffffffffffffffffffff1681526020018481526020018381526020018281526020019550505050505060405180910390f35b6106dd600480360360408110156106a757600080fd5b81019080803573ffffffffffffffffffffffffffffffffffffffff169060200190929190803590602001909291905050506118fc565b604051808273ffffffffffffffffffffffffffffffffffffffff1673ffffffffffffffffffffffffffffffffffffffff16815260200191505060405180910390f35b610727611947565b604051808273ffffffffffffffffffffffffffffffffffffffff1673ffffffffffffffffffffffffffffffffffffffff16815260200191505060405180910390f35b6108d96004803603606081101561077f57600080fd5b81019080803573ffffffffffffffffffffffffffffffffffffffff169060200190929190803590602001906401000000008111156107bc57600080fd5b8201836020820111156107ce57600080fd5b803590602001918460018302840111640100000000831117156107f057600080fd5b91908080601f016020809104026020016040519081016040528093929190818152602001838380828437600081840152601f19601f8201169050808301925050505050505091929192908035906020019064010000000081111561085357600080fd5b82018360208201111561086557600080fd5b8035906020019184600183028401116401000000008311171561088757600080fd5b91908080601f016020809104026020016040519081016040528093929190818152602001838380828437600081840152601f19601f82011690508083019250505050505050919291929050505061196c565b005b610907600480360360208110156108f157600080fd5b8101908080359060200190929190505050611ab1565b604051808273ffffffffffffffffffffffffffffffffffffffff1673ffffffffffffffffffffffffffffffffffffffff16815260200191505060405180910390f35b6109756004803603602081101561095f57600080fd5b8101908080359060200190929190505050611aed565b005b6109b96004803603602081101561098d57600080fd5b81019080803573ffffffffffffffffffffffffffffffffffffffff169060200190929190505050611b50565b604051808381526020018281526020019250505060405180910390f35b610b5a600480360360a08110156109ec57600080fd5b8101908080359060200190929190803573ffffffffffffffffffffffffffffffffffffffff1690602001909291908035906020019092919080359060200190640100000000811115610a3d57600080fd5b820183602082011115610a4f57600080fd5b80359060200191846001830284011164010000000083111715610a7157600080fd5b91908080601f016020809104026020016040519081016040528093929190818152602001838380828437600081840152601f19601f82011690508083019250505050505050919291929080359060200190640100000000811115610ad457600080fd5b820183602082011115610ae657600080fd5b80359060200191846001830284011164010000000083111715610b0857600080fd5b91908080601f016020809104026020016040519081016040528093929190818152602001838380828437600081840152601f19601f820116905080830192505050505050509192919290505050611c4e565b005b610b64612078565b6040518082815260200191505060405180910390f35b610bbc60048036036020811015610b9057600080fd5b81019080803573ffffffffffffffffffffffffffffffffffffffff16906020019092919050505061207e565b005b610bc661211a565b6040518082815260200191505060405180910390f35b610be4612120565b604051808273ffffffffffffffffffffffffffffffffffffffff1673ffffffffffffffffffffffffffffffffffffffff16815260200191505060405180910390f35b610c5260048036036020811015610c3c57600080fd5b8101908080359060200190929190505050612146565b005b60045481565b6000809054906101000a900473ffffffffffffffffffffffffffffffffffffffff1673ffffffffffffffffffffffffffffffffffffffff163373ffffffffffffffffffffffffffffffffffffffff1614610cb357600080fd5b6000600760008473ffffffffffffffffffffffffffffffffffffffff1673ffffffffffffffffffffffffffffffffffffffff1681526020019081526020016000209050600073ffffffffffffffffffffffffffffffffffffffff168160000160059054906101000a900473ffffffffffffffffffffffffffffffffffffffff1673ffffffffffffffffffffffffffffffffffffffff161415610d5457600080fd5b818160000160046101000a81548160ff021916908360ff160217905550505050565b60015481565b6000809054906101000a900473ffffffffffffffffffffffffffffffffffffffff1673ffffffffffffffffffffffffffffffffffffffff163373ffffffffffffffffffffffffffffffffffffffff1614610dd557600080fd5b62015180810260058190555050565b60076020528060005260406000206000915090508060000160009054906101000a900463ffffffff16908060000160049054906101000a900460ff16908060000160059054906101000a900473ffffffffffffffffffffffffffffffffffffffff16908060010160009054906101000a900473ffffffffffffffffffffffffffffffffffffffff1690806002015490806003015490806004018054600181600116156101000203166002900480601f016020809104026020016040519081016040528092919081815260200182805460018160011615610100020316600290048015610f115780601f10610ee657610100808354040283529160200191610f11565b820191906000526020600020905b815481529060010190602001808311610ef457829003601f168201915b505050505090806005018054600181600116156101000203166002900480601f016020809104026020016040519081016040528092919081815260200182805460018160011615610100020316600290048015610faf5780601f10610f8457610100808354040283529160200191610faf565b820191906000526020600020905b815481529060010190602001808311610f9257829003601f168201915b5050505050905088565b6060600a60008373ffffffffffffffffffffffffffffffffffffffff1673ffffffffffffffffffffffffffffffffffffffff16815260200190815260200160002080548060200260200160405190810160405280929190818152602001828054801561107a57602002820191906000526020600020905b8160009054906101000a900473ffffffffffffffffffffffffffffffffffffffff1673ffffffffffffffffffffffffffffffffffffffff1681526020019060010190808311611030575b50505050509050919050565b6000600880549050905090565b6060600880548060200260200160405190810160405280929190818152602001828054801561111757602002820191906000526020600020905b8160009054906101000a900473ffffffffffffffffffffffffffffffffffffffff1673ffffffffffffffffffffffffffffffffffffffff16815260200190600101908083116110cd575b5050505050905090565b6000809054906101000a900473ffffffffffffffffffffffffffffffffffffffff1673ffffffffffffffffffffffffffffffffffffffff163373ffffffffffffffffffffffffffffffffffffffff161461117a57600080fd5b8060018190555050565b60035481565b81600660009054906101000a900473ffffffffffffffffffffffffffffffffffffffff1673ffffffffffffffffffffffffffffffffffffffff166370a08231336040518263ffffffff1660e01b8152600401808273ffffffffffffffffffffffffffffffffffffffff1673ffffffffffffffffffffffffffffffffffffffff16815260200191505060206040518083038186803b15801561122a57600080fd5b505afa15801561123e573d6000803e3d6000fd5b505050506040513d602081101561125457600080fd5b81019080805190602001909291905050501161126f57600080fd5b611277612209565b600760008373ffffffffffffffffffffffffffffffffffffffff1673ffffffffffffffffffffffffffffffffffffffff168152602001908152602001600020604051806101000160405290816000820160009054906101000a900463ffffffff1663ffffffff1663ffffffff1681526020016000820160049054906101000a900460ff1660ff1660ff1681526020016000820160059054906101000a900473ffffffffffffffffffffffffffffffffffffffff1673ffffffffffffffffffffffffffffffffffffffff1673ffffffffffffffffffffffffffffffffffffffff1681526020016001820160009054906101000a900473ffffffffffffffffffffffffffffffffffffffff1673ffffffffffffffffffffffffffffffffffffffff1673ffffffffffffffffffffffffffffffffffffffff1681526020016002820154815260200160038201548152602001600482018054600181600116156101000203166002900480601f01602080910402602001604051908101604052809291908181526020018280546001816001161561010002031660029004801561145e5780601f106114335761010080835404028352916020019161145e565b820191906000526020600020905b81548152906001019060200180831161144157829003601f168201915b50505050508152602001600582018054600181600116156101000203166002900480601f0160208091040260200160405190810160405280929190818152602001828054600181600116156101000203166002900480156115005780601f106114d557610100808354040283529160200191611500565b820191906000526020600020905b8154815290600101906020018083116114e357829003601f168201915b5050505050815250509050600073ffffffffffffffffffffffffffffffffffffffff16816040015173ffffffffffffffffffffffffffffffffffffffff16141561154957600080fd5b600660009054906101000a900473ffffffffffffffffffffffffffffffffffffffff1673ffffffffffffffffffffffffffffffffffffffff166323b872dd3330866040518463ffffffff1660e01b8152600401808473ffffffffffffffffffffffffffffffffffffffff1673ffffffffffffffffffffffffffffffffffffffff1681526020018373ffffffffffffffffffffffffffffffffffffffff1673ffffffffffffffffffffffffffffffffffffffff1681526020018281526020019350505050602060405180830381600087803b15801561162657600080fd5b505af115801561163a573d6000803e3d6000fd5b505050506040513d602081101561165057600080fd5b810190808051906020019092919050505050600061168d60015461167f600454876121a990919063ffffffff16565b6121cf90919063ffffffff16565b90506000600960008773ffffffffffffffffffffffffffffffffffffffff1673ffffffffffffffffffffffffffffffffffffffff1681526020019081526020016000206000846040015173ffffffffffffffffffffffffffffffffffffffff1673ffffffffffffffffffffffffffffffffffffffff1681526020019081526020016000209050858160000160006101000a81548173ffffffffffffffffffffffffffffffffffffffff021916908373ffffffffffffffffffffffffffffffffffffffff160217905550338160010160006101000a81548173ffffffffffffffffffffffffffffffffffffffff021916908373ffffffffffffffffffffffffffffffffffffffff16021790555081816003016000828254019250508190555084816002016000828254019250508190555060055442018160040181905550600a60008773ffffffffffffffffffffffffffffffffffffffff1673ffffffffffffffffffffffffffffffffffffffff168152602001908152602001600020836040015190806001815401808255809150509060018203906000526020600020016000909192909190916101000a81548173ffffffffffffffffffffffffffffffffffffffff021916908373ffffffffffffffffffffffffffffffffffffffff16021790555050505050505050565b6009602052816000526040600020602052806000526040600020600091509150508060000160009054906101000a900473ffffffffffffffffffffffffffffffffffffffff16908060010160009054906101000a900473ffffffffffffffffffffffffffffffffffffffff16908060020154908060030154908060040154905085565b600a602052816000526040600020818154811061191557fe5b906000526020600020016000915091509054906101000a900473ffffffffffffffffffffffffffffffffffffffff1681565b6000809054906101000a900473ffffffffffffffffffffffffffffffffffffffff1681565b6000600760008573ffffffffffffffffffffffffffffffffffffffff1673ffffffffffffffffffffffffffffffffffffffff16815260200190815260200160002090503373ffffffffffffffffffffffffffffffffffffffff168160000160059054906101000a900473ffffffffffffffffffffffffffffffffffffffff1673ffffffffffffffffffffffffffffffffffffffff161480611a5c57503373ffffffffffffffffffffffffffffffffffffffff168160010160009054906101000a900473ffffffffffffffffffffffffffffffffffffffff1673ffffffffffffffffffffffffffffffffffffffff16145b611a6557600080fd5b6000835114611a885782816004019080519060200190611a86929190612286565b505b6000825114611aab5781816005019080519060200190611aa9929190612286565b505b50505050565b60088181548110611abe57fe5b906000526020600020016000915054906101000a900473ffffffffffffffffffffffffffffffffffffffff1681565b6000809054906101000a900473ffffffffffffffffffffffffffffffffffffffff1673ffffffffffffffffffffffffffffffffffffffff163373ffffffffffffffffffffffffffffffffffffffff1614611b4657600080fd5b8060028190555050565b600080600660009054906101000a900473ffffffffffffffffffffffffffffffffffffffff1673ffffffffffffffffffffffffffffffffffffffff166370a08231846040518263ffffffff1660e01b8152600401808273ffffffffffffffffffffffffffffffffffffffff1673ffffffffffffffffffffffffffffffffffffffff16815260200191505060206040518083038186803b158015611bf257600080fd5b505afa158015611c06573d6000803e3d6000fd5b505050506040513d6020811015611c1c57600080fd5b81019080805190602001909291905050508373ffffffffffffffffffffffffffffffffffffffff163191509150915091565b6002548511611c5c57600080fd5b84600660009054906101000a900473ffffffffffffffffffffffffffffffffffffffff1673ffffffffffffffffffffffffffffffffffffffff166370a08231336040518263ffffffff1660e01b8152600401808273ffffffffffffffffffffffffffffffffffffffff1673ffffffffffffffffffffffffffffffffffffffff16815260200191505060206040518083038186803b158015611cfc57600080fd5b505afa158015611d10573d6000803e3d6000fd5b505050506040513d6020811015611d2657600080fd5b810190808051906020019092919050505011611d4157600080fd5b6000600760008673ffffffffffffffffffffffffffffffffffffffff1673ffffffffffffffffffffffffffffffffffffffff1681526020019081526020016000209050600073ffffffffffffffffffffffffffffffffffffffff168160000160059054906101000a900473ffffffffffffffffffffffffffffffffffffffff1673ffffffffffffffffffffffffffffffffffffffff1614611de157600080fd5b600660009054906101000a900473ffffffffffffffffffffffffffffffffffffffff1673ffffffffffffffffffffffffffffffffffffffff166323b872dd3330896040518463ffffffff1660e01b8152600401808473ffffffffffffffffffffffffffffffffffffffff1673ffffffffffffffffffffffffffffffffffffffff1681526020018373ffffffffffffffffffffffffffffffffffffffff1673ffffffffffffffffffffffffffffffffffffffff1681526020018281526020019350505050602060405180830381600087803b158015611ebe57600080fd5b505af1158015611ed2573d6000803e3d6000fd5b505050506040513d6020811015611ee857600080fd5b8101908080519060200190929190505050506008805490508160000160006101000a81548163ffffffff021916908363ffffffff16021790555060088590806001815401808255809150509060018203906000526020600020016000909192909190916101000a81548173ffffffffffffffffffffffffffffffffffffffff021916908373ffffffffffffffffffffffffffffffffffffffff16021790555050848160000160056101000a81548173ffffffffffffffffffffffffffffffffffffffff021916908373ffffffffffffffffffffffffffffffffffffffff160217905550338160010160006101000a81548173ffffffffffffffffffffffffffffffffffffffff021916908373ffffffffffffffffffffffffffffffffffffffff16021790555083816002018190555085816003018190555060008160000160046101000a81548160ff021916908360ff16021790555082816004019080519060200190612056929190612286565b508181600501908051906020019061206f929190612286565b50505050505050565b60055481565b6000809054906101000a900473ffffffffffffffffffffffffffffffffffffffff1673ffffffffffffffffffffffffffffffffffffffff163373ffffffffffffffffffffffffffffffffffffffff16146120d757600080fd5b806000806101000a81548173ffffffffffffffffffffffffffffffffffffffff021916908373ffffffffffffffffffffffffffffffffffffffff16021790555050565b60025481565b600660009054906101000a900473ffffffffffffffffffffffffffffffffffffffff1681565b6000809054906101000a900473ffffffffffffffffffffffffffffffffffffffff1673ffffffffffffffffffffffffffffffffffffffff163373ffffffffffffffffffffffffffffffffffffffff161461219f57600080fd5b8060038190555050565b60008082116121b757600080fd5b60008284816121c257fe5b0490508091505092915050565b6000808314156121e25760009050612203565b60008284029050828482816121f357fe5b04146121fe57600080fd5b809150505b92915050565b604051806101000160405280600063ffffffff168152602001600060ff168152602001600073ffffffffffffffffffffffffffffffffffffffff168152602001600073ffffffffffffffffffffffffffffffffffffffff168152602001600080191681526020016000815260200160608152602001606081525090565b828054600181600116156101000203166002900490600052602060002090601f016020900481019282601f106122c757805160ff19168380011785556122f5565b828001600101855582156122f5579182015b828111156122f45782518255916020019190600101906122d9565b5b5090506123029190612306565b5090565b61232891905b8082111561232457600081600090555060010161230c565b5090565b9056fea165627a7a72305820e30754d06b86ba1fbb45e73b990a6128fcd175371234ee70ff12a4432c3e68d90029",
  "source": "pragma solidity >=0.4.21;\r\n\r\n\r\nimport \"./Owned.sol\";\r\nimport \"./SafeMath.sol\";\r\nimport \"./TCoinToken.sol\";\r\n\r\n/**\r\n * The MicroPaySystem contract does this and that...\r\n */\r\ncontract MicroPaySystem is Owned{\r\n\r\n  struct MinerPool {\r\n\tuint32\tID;\r\n\tuint8\tpoolType;\r\n\taddress\tmainAddr;\r\n\taddress\tpayer;\r\n\tbytes32\tsubAddr;\r\n\tuint \tguaranteedNo;\r\n\tstring\tshortName;\r\n\tstring \tdetailInfos;\t\t\r\n  }\r\n\r\n  struct Channel {\r\n\taddress mainAddr;\r\n\taddress\tpayerAddr;\r\n\tuint \tremindTokens;\r\n\tuint \tremindPackets;\r\n\tuint256\texpiration;\t\r\n  }\r\n\r\n  using SafeMath for uint256;\r\n\r\n  uint public PacketPrice = 16000000; //(16MB Bytes) /-->/1M=1000KB = 1,000,000 Bytes;\r\n\r\n  uint public MinPoolCostInToken;\r\n  uint public MinMinerCostInToken;\r\n  uint public TokenDecimals;\r\n  uint public Duration = 30 days;\r\n\t\r\n  TCoinToken public token;\r\n\r\n  mapping (address => MinerPool) public MinerPools;\r\n  address[] public MinerPoolsAddresses;\r\n\r\n  mapping (address => mapping (address => Channel)) public MicroPaymentChannels;\r\n\r\n  mapping (address => address[])public allSubPools;\r\n\t\r\n\t\r\n  /**************************************************************************\r\n   * Basic\r\n   **************************************************************************/\r\n\t\r\n\r\n  /**\r\n   * @dev Changed BandWidth Price\r\n   * @param newPrice uint changed the traffic price\r\n   */\r\n  function ChangeBandWidthPrice(uint newPrice) public onlyOwner{\r\n\tPacketPrice = newPrice;\t\r\n  }\r\n\r\n  /**\r\n   * @dev \tChanged join MinPoolCostInToken\r\n   * @param newCost uint\r\n   */\r\n  function ChangeMinPoolCost(uint newCost)public onlyOwner{\r\n  \tMinPoolCostInToken = newCost;\r\n  }\r\n\r\n  function ChangeMinMinerCost(uint newCost) public onlyOwner {\r\n  \tMinMinerCostInToken = newCost;\r\n  }\r\n\r\n  function ChangeDuration(uint daysAfter) public onlyOwner {\r\n  \tDuration = daysAfter * 1 days;\r\n  }\r\n\r\n  constructor(address ta )public {\r\n  \ttoken = TCoinToken(ta);\r\n\r\n  \tTokenDecimals = token.getDeccimal();\r\n\r\n  \tMinPoolCostInToken = 51200 * TokenDecimals;\r\n  \tMinMinerCostInToken = 512 * TokenDecimals;\r\n  }\r\n\r\n  /*********************************************************************\r\n   *\t\t\t\t\tUser\r\n   *********************************************************************/\r\n  function BuyPacket(address user,uint tokenNo,address poolAddr) public{\r\n  \trequire(token.balanceOf(msg.sender) > tokenNo);\r\n  \tMinerPool memory pool = MinerPools[poolAddr];\r\n  \trequire(pool.mainAddr != address(0));\r\n\r\n  \ttoken.transferFrom(msg.sender,address(this),tokenNo);\r\n  \tuint newPackets = tokenNo.div(TokenDecimals).mul(PacketPrice);\r\n\r\n  \tChannel storage ch = MicroPaymentChannels[user][pool.mainAddr];\r\n  \tch.mainAddr = user;\r\n  \tch.payerAddr = msg.sender;\r\n  \tch.remindPackets += newPackets;\r\n  \tch.remindTokens += tokenNo;\r\n  \tch.expiration = now + Duration;\r\n\r\n  \tallSubPools[user].push(pool.mainAddr);\r\n  }\r\n\r\n  /**\r\n   * @dev Query User address Balance tokens\r\n   * @param userAddress address \r\n   * \r\n   */\r\n  function TokenBalance(address userAddress) public view returns (uint,uint){\r\n  \treturn (token.balanceOf(userAddress),userAddress.balance);\r\n  }\r\n  /**\r\n   * @dev user join miner pool address\r\n   * @param userAddress address \r\n   *\r\n   */\r\n  function AllMySubPools(address userAddress)public view returns(address[] memory){\r\n  \treturn allSubPools[userAddress];\r\n  }\r\n\r\n  /***********************************************************************************\r\n   * \t\t\t\t\t\t\t\tPool\r\n   ***********************************************************************************/\r\n  function RegAsMinerPool(uint gno,address mainAddr,bytes32 subAddr,\r\n  \tstring memory name,string memory desc) public {\r\n  \trequire(gno > MinPoolCostInToken);\r\n  \trequire(token.balanceOf(msg.sender) > gno);\r\n\r\n  \tMinerPool storage pool = MinerPools[mainAddr];\r\n  \trequire(pool.mainAddr == address(0));\r\n\r\n  \ttoken.transferFrom(msg.sender,address(this),gno);\r\n\r\n  \tpool.ID = uint32(MinerPoolsAddresses.length);\r\n  \tMinerPoolsAddresses.push(mainAddr);\r\n\r\n  \tpool.mainAddr = mainAddr;\r\n  \tpool.payer = msg.sender;\r\n  \tpool.subAddr = subAddr;\r\n  \tpool.guaranteedNo = gno;\r\n  \tpool.poolType = 0;\r\n  \tpool.shortName = name;\r\n  \tpool.detailInfos = desc;\r\n  }\r\n\r\n  /**\r\n   * @dev Set Mining Pool Type\r\n   * @param mainAddr address \r\n   * @param typ uint8 \r\n   */\r\n  function SetPoolType(address mainAddr,uint8 typ) public onlyOwner{\r\n  \tMinerPool storage pool = MinerPools[mainAddr];\r\n  \trequire(pool.mainAddr != address(0));\r\n  \tpool.poolType = typ;\r\n  }\r\n\r\n  /**\r\n   * @dev Get Mining Pool Size\r\n   */\r\n  function GetPoolSize()public view returns (uint){\r\n  \treturn MinerPoolsAddresses.length;\r\n  }\r\n\r\n  function GetPoolAddress()public view returns(address[] memory){\r\n  \treturn MinerPoolsAddresses;\r\n  }\r\n\r\n  /**\r\n   * @dev changed Miner Pool infomation\r\n   * @param mainAddr address miner pool address\r\n   * @param name string  miner pool name\r\n   * @param desc string  miner description\r\n   */\r\n  function ChangePoolSettings(address mainAddr,string memory name,string memory desc) public{\r\n  \tMinerPool storage pool = MinerPools[mainAddr];\r\n\r\n  \trequire(pool.mainAddr == msg.sender || pool.payer == msg.sender);\r\n\r\n  \tif(bytes(name).length != 0) {\r\n  \t  pool.shortName = name;\r\n  \t}\r\n\r\n  \tif(bytes(desc).length != 0) {\r\n  \t  pool.detailInfos = desc;\r\n  \t}\r\n  }\r\n\r\n  /*********************************************************************************\r\n   * \t\tMiner\r\n   *********************************************************************************/\r\n\r\n}\r\n",
  "sourcePath": "D:/iwork/naruto/MicroPayPipe/contracts/MicroPaySystem.sol",
  "compiler": {
    "name": "solc",
    "version": "0.5.8+commit.23d335f2.Emscripten.clang"
  },
  "schemaVersion": "3.0.15",
  "updatedAt": "2019-09-06T05:02:08.081Z",
  "devdoc": {
    "methods": {
      "AllMySubPools(address)": {
        "details": "user join miner pool address\r",
        "params": {
          "userAddress": "address \r    "
        }
      },
      "ChangeBandWidthPrice(uint256)": {
        "details": "Changed BandWidth Price\r",
        "params": {
          "newPrice": "uint changed the traffic price\r"
        }
      },
      "ChangeMinPoolCost(uint256)": {
        "details": "Changed join MinPoolCostInToken\r",
        "params": {
          "newCost": "uint\r"
        }
      },
      "ChangePoolSettings(address,string,string)": {
        "details": "changed Miner Pool infomation\r",
        "params": {
          "desc": "string  miner description\r",
          "mainAddr": "address miner pool address\r",
          "name": "string  miner pool name\r"
        }
      },
      "GetPoolSize()": {
        "details": "Get Mining Pool Size\r"
      },
      "SetPoolType(address,uint8)": {
        "details": "Set Mining Pool Type\r",
        "params": {
          "mainAddr": "address \r",
          "typ": "uint8 \r"
        }
      },
      "TokenBalance(address)": {
        "details": "Query User address Balance tokens\r",
        "params": {
          "userAddress": "address \r \r"
        }
      }
    }
  },
  "userdoc": {
    "methods": {
      "BuyPacket(address,uint256,address)": {
        "notice": "*******************************************************************\r\t\t\t\tUser\r********************************************************************"
      },
      "RegAsMinerPool(uint256,address,bytes32,string,string)": {
        "notice": "*********************************************************************************\r\t\t\t\t\t\t\t\tPool\r**********************************************************************************"
      }
    },
    "notice": "The MicroPaySystem contract does this and that...\r"
  }
}